:100000000C94D0000C94F8000C94F8000C94C10AE5
:100010000C94E50A0C94090B0C94F8000C94F8006D
:100020000C94F8000C94F8000C94F8000C94F80070
:100030000C94F8000C94F8000C94FA000C94F8005E
:100040000C94740C0C94F8000C947E0E0C94C10E5D
:100050000C94F8000C94F8000C94F8000C94F80040
:100060000C94F8000C94F80000C20100010011008B
:1000700011000C0000E100000A002500250021000D
:10008000009600001900390039003600127A00008D
:100090001F004600460044008070000022004D0012
:1000A0004D004A00004B00003600750075007200DC
:1000B000403800004A009C009C0099008025000008
:1000C0007200EC00EC00E900C0120000E900DA0167
:1000D000DA01D70160090000D701B603B603B30304
:1000E000B0040000B3036E076E076B0758020000F0
:1000F0006E07DC0EDC0ED80E2C010000DC0EC11DDC
:10010000C11DBE1D0000000700020100000304061F
:1001100000000000000000000102040810204080E0
:100120000102040810200102040810200404040441
:100130000404040402020202020203030303030391
:100140000000000023002600290000000000250018
:1001500028002B0000000000240027002A004E4148
:100160004E494E495459494E46CDCCCC3D0AD72331
:100170003C17B7D13877CC2B329595E6241FB14F79
:100180000A000020410000C84200401C4620BCBEBE
:100190004CCA1B0E5AAEC59D740003037D0F1B0392
:1001A00011241FBECFEFD8E0DEBFCDBF12E0A0E02C
:1001B000B1E0ECEBFFE202C005900D92A03BB1076D
:1001C000D9F715E0A0EBB2E001C01D92AE30B10747
:1001D000E1F711E0CEE9D1E004C02297FE010E94D0
:1001E0007215CA39D107C9F70E9455120C94D1175C
:1001F0000C9400001F920F920FB60F9211242F93B0
:100200003F934F935F936F937F938F939F93AF939E
:10021000BF93EF93FF9384EB92E00E944A08811111
:100220008093C600FF91EF91BF91AF919F918F9105
:100230007F916F915F914F913F912F910F900FBEE2
:100240000F901F901895882359F08FEA87BD8091F1
:100250006E00826080936E0081E0809300010895BB
:1002600080916E008D7F80936E0010920001089542
:1002700068EB7BE080E090E00E94ED0C40E052EC07
:1002800061E070E082E694E00E94FC0E61E071E0C3
:1002900082E694E00E942E1060E875E284EB92E022
:1002A0000E941B0962E271E084EB92E00E94370930
:1002B00064E571E084EB92E00E94370965E671E045
:1002C00084EB92E00E94370981E00E94230168EEEE
:1002D00073E080E090E00E94ED0C64E771E083E061
:1002E00093E00C942E10CF92DF92EF92FF928091C8
:1002F000000181110BC084EB92E00E944A08882320
:1003000029F0682F82E694E00E94131084EB92E0BB
:100310000E94480981111AC0C090B002D090B10269
:10032000E090B202F090B3020E94BE0C6C157D0505
:100330008E059F05B8F40E94BE0C6093B0027093C6
:10034000B1028093B2029093B3020CC084EB92E0AE
:100350000E944B09BC0184EB92E00E941F038111B3
:10036000DBCF4CC10E94BE0CC090B002D090B10255
:10037000E090B202F090B3026C197D098E099F09DA
:10038000613D77408105910508F438C10E94BE0C9B
:100390006093B0027093B1028093B2029093B30263
:1003A00060E871E082E694E00E9411104AE050E0BB
:1003B0006091B40282E694E00E9422116AE382E630
:1003C00094E00E9413104AE050E06091B50282E68A
:1003D00094E00E9422116AE382E694E00E941310E6
:1003E0004AE050E06091B60282E694E00E94221159
:1003F0006EE282E694E00E9413106091BA0270915E
:10040000BB024AE050E082E694E00E94401168E8B6
:1004100071E082E694E00E9411104AE050E06091A1
:10042000B90282E694E00E9422116FE282E694E033
:100430000E9413104AE050E06091B80282E694E016
:100440000E9422116FE871E082E694E00E94111090
:100450004AE050E06091B70282E694E00E942911E0
:1004600063E971E082E694E00E9411106091EF026E
:1004700070E04AE050E082E694E00E94F51069E9FD
:1004800071E082E694E00E9411106091F00270E049
:100490004AE050E082E694E00E94FD108091EF0275
:1004A000882309F4ABC064EA71E082E694E00E941C
:1004B00011104091BC025091BD026091BE0270913A
:1004C000BF0224E030E082E694E00E944112609195
:1004D000EC0282E694E00E9413106FEA71E082E67B
:1004E00094E00E9411104091C0025091C1026091AD
:1004F000C2027091C30224E030E082E694E00E94E0
:1005000041126091ED0282E694E00E94401062EB9D
:1005100071E082E694E00E9411104091CC0250916B
:10052000CD026091CE027091CF0224E030E082E6ED
:1005300094E00E9441126FEA71E082E694E00E942A
:1005400011104091D0025091D1026091D20270916D
:10055000D30224E030E082E694E00E94431262EE8F
:1005600071E082E694E00E9411104091DC0250910B
:10057000DD026091DE027091DF0222E030E082E66F
:1005800094E00E94431262EF71E082E694E00E94E0
:1005900011104091E0025091E1026091E2027091ED
:1005A000E30222E030E082E694E00E9443126AEF28
:1005B00071E082E694E00E9411104091D8025091BF
:1005C000D9026091DA027091DB0222E030E082E62B
:1005D00094E00E94431265E072E082E694E00E949B
:1005E00011106091F10270E04AE050E082E694E080
:1005F000FF90EF90DF90CF900C94FD10FF90EF9064
:10060000DF90CF90089520E042E063E083E093E044
:100610000E947B0B63E073E084EB92E00E940A0986
:100620000E94BE0C6093B0027093B1028093B2023C
:100630009093B302089583E093E00C946D0C2F9295
:100640003F924F925F926F927F928F929F92AF9262
:10065000BF92CF92DF92EF92FF920F931F93CF93AF
:10066000DF93CDB7DEB72A970FB6F894DEBF0FBE83
:10067000CDBF8C017B01FB0101900020E9F7E61B57
:10068000F70B3597DB01AE0FBF1F8C918A3241F417
:1006900021E0822F90E08E179F0710F42F5FF9CF93
:1006A00062E172E0C7010E94E115892B09F468C27A
:1006B0006CE270E0C7010E94C71501961C010E9400
:1006C00076156B017C010E9438134B015C0120E11F
:1006D00037E240E050E00E940C15D8012C9344E62C
:1006E000442E512C612C712CA30192010E940C15F7
:1006F000F8012183C501B401A30192010E940C15E8
:10070000D80112966C9320E030E040E85FE3C70127
:10071000B6010E94A81320E030E04AE754E40E94AA
:1007200076140E943813F801778366836CE270E0D8
:10073000C1010E94C7157C015C01FFEFAF1ABF0A1F
:10074000DC0111968C918C3209F4A5C042E050E096
:10075000B501CE0101960E94D2151B82CE010196F1
:100760000E9498159B01AC0160E876E988E990E069
:100770000E94E8142B013C01B7016D5F7F4F42E0FE
:1007800050E0CE0101960E94D2155701B6E0AB0EA3
:10079000B11C44E050E0B501CE0103960E94D21591
:1007A0001F82CE0101960E9498159B01AC01A2E325
:1007B000B0E00E94DD1423E030E040E050E00E9411
:1007C0002E1569017A01D301C201820F931FA41F64
:1007D000B51FF801808B918BA28BB38BC301B20143
:1007E00020EA36E841E050E00E942E15CA01B90126
:1007F0000E9466132B013C01C701B6010E946613DB
:100800002CE933E549EC56E30E9476149B01AC01D8
:10081000C301B2010E9463126B017C01D8011896DA
:100820006D937D938D939C931B9720E030E048EC73
:1008300052E40E94CB120E9433132B013C0184E648
:10084000849DB001859D700D1124882777FD8095CA
:10085000982F0E9466139B01AC01C701B6010E944C
:10086000621220E030E040E752E40E94CB126B01BC
:100870007C01B201882777FD8095982F0E9466132E
:100880009B01AC01C701B6010E946312F801608FA1
:10089000718F828F938F6CE270E0C5010E94C71543
:1008A000FC01019621812C3211F1233571F4D8011C
:1008B00058964D915D916D917C915B9770585896CB
:1008C0004D935D936D937C935B9721812E3419F446
:1008D000F80120AF0CC0233521F4D801D8962C9311
:1008E00006C02C3211F080E0BCC3F80110AE6CE2FF
:1008F00070E00E94C7157C015C01FFEFAF1ABF0AD0
:10090000DC0111968C918C3209F4A5C043E050E0D3
:10091000B501CE0101960E94D2151C82CE0101962E
:100920000E9498159B01AC0160E876E988E990E0A7
:100930000E94E8142B013C01B7016C5F7F4F42E03D
:1009400050E0CE0101960E94D2155701B7E0AB0EE0
:10095000B11C44E050E0B501CE0103960E94D215CF
:100960001F82CE0101960E9498159B01AC01A2E363
:10097000B0E00E94DD1423E030E040E050E00E944F
:100980002E1569017A01D301C201820F931FA41FA2
:10099000B51FF801848B958BA68BB78BC301B20171
:1009A00020EA36E841E050E00E942E15CA01B90164
:1009B0000E9466132B013C01C701B6010E94661319
:1009C0002CE933E549EC56E30E9476149B01AC0117
:1009D000C301B2010E9463126B017C01D8011C9615
:1009E0006D937D938D939C931F9720E030E048ECAE
:1009F00052E40E94CB120E9433132B013C0184E687
:100A0000849DB001859D700D1124882777FD809508
:100A1000982F0E9466139B01AC01C701B6010E948A
:100A2000621220E030E040E752E40E94CB126B01FA
:100A30007C01B201882777FD8095982F0E9466136C
:100A40009B01AC01C701B6010E946312F801648FDB
:100A5000758F868F978F6CE270E0C5010E94C71575
:100A6000FC01019621812C3209F1273571F4D8015E
:100A70005C964D915D916D917C915F9770585C96FD
:100A80004D935D936D937C935F972181273519F486
:100A9000F80121AF0BC0253421F4D801D9962C934D
:100AA00005C02C3209F01FCFF80111AE6CE270E0E6
:100AB0000E94C7157C01FFEFEF1AFF0ADC011196B7
:100AC0008C918C3229F0C7010E947A15F80184AF0D
:100AD0006CE270E0C7010E94C7157C01FFEFEF1ABE
:100AE000FF0ADC0111968C918C3229F0C7010E941B
:100AF0007A15F80185AF6CE270E0C7010E94C71556
:100B00007C01FFEFEF1AFF0ADC0111968C918C3209
:100B100041F0C7010E947615F80164AB75AB86AB56
:100B200097AB6CE270E0C7010E94C7157C01FFEF34
:100B3000EF1AFF0ADC0111968C918C3241F0C7014B
:100B40000E947615F80164A375A386A397A36CE2AF
:100B500070E0C7010E94C7156CE270E001960E9428
:100B6000C715DC0111962C912C3209F479C201963B
:100B70000E947615F80160A371A382A393A370C2AB
:100B800069E172E0C7010E94E115892B09F4ABCE3F
:100B90006CE270E0C7010E94C71501961C010E941B
:100BA00076156B017C010E9438134B015C0120E13A
:100BB00037E240E050E00E940C15D8012C9334E657
:100BC000432E512C612C712CA30192010E940C1513
:100BD000F8012183C501B401A30192010E940C1503
:100BE000D80112966C9320E030E040E85FE3C70143
:100BF000B6010E94A81320E030E04AE754E40E94C6
:100C000076140E943813F801778366836CE270E0F3
:100C1000C1010E94C715DC0111962C91213421F4E9
:100C200021E0F80123AF06C0263509F05CCED801DB
:100C3000DB961C926CE270E001960E94C7157C0165
:100C40005C01BFEFAB1ABB0AFC0181818C3209F455
:100C5000A5C042E050E0B501CE0101960E94D21538
:100C60001B82CE0101960E9498159B01AC0160E8A1
:100C700076E988E990E00E94E8142B013C01B70175
:100C80006D5F7F4F42E050E0CE0101960E94D21589
:100C90005701F6E0AF0EB11C44E050E0B501CE01C3
:100CA00003960E94D2151F82CE0101960E949815CC
:100CB0009B01AC01A2E3B0E00E94DD1423E030E030
:100CC00040E050E00E942E1569017A01D301C20173
:100CD000820F931FA41FB51FF801808B918BA28BED
:100CE000B38BC301B20120EA36E841E050E00E9434
:100CF0002E15CA01B9010E9466132B013C01C701E0
:100D0000B6010E9466132CE933E549EC56E30E94D4
:100D100076149B01AC01C301B2010E9463126B0106
:100D20007C01D80118966D937D938D939C931B97AE
:100D300020E030E048EC52E40E94CB120E943313D2
:100D40002B013C0184E6849DB001859D700D11242A
:100D5000882777FD8095982F0E9466139B01AC0130
:100D6000C701B6010E94621220E030E040E752E481
:100D70000E94CB126B017C01B201882777FD809520
:100D8000982F0E9466139B01AC01C701B6010E9417
:100D90006312F801608F718F828F938F6CE270E025
:100DA000C5010E94C715FC01019621812C3209F171
:100DB000233571F4D80158964D915D916D917C91D8
:100DC0005B97705858964D935D936D937C935B97AA
:100DD00021812E3419F4F80120AF0BC0233521F402
:100DE000D801D8962C9305C02C3209F07CCDF8019F
:100DF00010AE6CE270E00E94C7157C015C01FFEF51
:100E0000AF1ABF0ADC0111968C918C3209F4A5C08F
:100E100043E050E0B501CE0101960E94D2151C823C
:100E2000CE0101960E9498159B01AC0160E876E91D
:100E300088E990E00E94E8142B013C01B7016C5F47
:100E40007F4F42E050E0CE0101960E94D21557013B
:100E5000B7E0AB0EB11C44E050E0B501CE01039603
:100E60000E94D2151F82CE0101960E9498159B0107
:100E7000AC01A2E3B0E00E94DD1423E030E040E0EA
:100E800050E00E942E1569017A01D301C201820F40
:100E9000931FA41FB51FF801848B958BA68BB78B6E
:100EA000C301B20120EA36E841E050E00E942E156D
:100EB000CA01B9010E9466132B013C01C701B601AA
:100EC0000E9466132CE933E549EC56E30E94761440
:100ED0009B01AC01C301B2010E9463126B017C0152
:100EE000D8011C966D937D938D939C931F9720E062
:100EF00030E048EC52E40E94CB120E9433132B01E5
:100F00003C0184E6849DB001859D700D11248827E5
:100F100077FD8095982F0E9466139B01AC01C70155
:100F2000B6010E94621220E030E040E752E40E94E5
:100F3000CB126B017C01B201882777FD8095982F39
:100F40000E9466139B01AC01C701B6010E946312A7
:100F5000F801648F758F868F978F6CE270E0C50102
:100F60000E94C715FC01019621812C3209F1273519
:100F700071F4D8015C964D915D916D917C915F9774
:100F800070585C964D935D936D937C935F97218130
:100F9000273519F4F80121AF0BC0253421F4D8010D
:100FA000D9962C9305C02C3209F09DCCF80111AED6
:100FB0006CE270E00E94C7157C01FFEFEF1AFF0A98
:100FC000DC0111968C918C3241F0C7010E9476159C
:100FD000F80160A771A782A793A76CE270E0C70130
:100FE0000E94C7157C01FFEFEF1AFF0ADC01119682
:100FF0008C918C3241F0C7010E947615F80164A7EC
:1010000075A786A797A76CE270E0C7010E94C71575
:10101000DC0111962C912C3219F101960E94761563
:101020000E9438132B013C0120E137E240E050E000
:101030000E940C15F801258324E6C22ED12CE12C48
:10104000F12CA70196010E940C15D80114962C933F
:10105000C301B201A70196010E940C15F801638338
:1010600081E02A960FB6F894DEBF0FBECDBFDF91A8
:10107000CF911F910F91FF90EF90DF90CF90BF9095
:10108000AF909F908F907F906F905F904F903F9028
:101090002F900895CF93DF93FC01E65BFF4F2081F3
:1010A000222311F080E065C0EC01C55BDF4FA88111
:1010B000B981109741F0ED91FC9111970480F58171
:1010C000E02DCD010BC0EC01C35BDF4F888199811E
:1010D000DC01ED91FC910480F581E02D0995892BCF
:1010E00009F388819981DC01ED91FC910680F781FB
:1010F000E02D09958A3049F590912403E09122036F
:10110000F0912303E90FF11D108220912203309109
:101110002303B3E02D393B0739F445E253E0509304
:1011200023034093220308C02DE933E030932303C7
:101130002093220325E233E0309321032093200300
:101140001092240391E090931F03E0912203F09109
:1011500023039091240321E0290F20932403E90F16
:10116000F11D808390912403983718F097E79093AE
:101170002403DF91CF910895FC01DC01A55BBF4FF3
:101180001D921C92DC01A35BBF4F1D921C9210921A
:101190001F03DC01A65BBF4F1C92109224038DE954
:1011A00093E0909323038093220385E293E090934E
:1011B00021038093200315AE14AE1582148213828E
:1011C00012821182108212AE11AE10AE13AE1782CF
:1011D000168214AA15AA16AA17AA10AA11AA12AA48
:1011E00013AA14A615A616A617A610A611A612A62F
:1011F00013A614A215A216A217A210A211A212A23F
:1012000013A21486158616861786108611861286F6
:10121000138608950F931F93CF93DF93EC018B01F7
:101220000E94BC08C55BDF4F19830883DF91CF9113
:101230001F910F910895FC01E55BFF4F20813181E3
:10124000AB0160E070E02115310521F0C9010E9479
:10125000AB0B07C0FC01E35BFF4F808191810E94D3
:10126000FC0E6AE070E080E090E00C94ED0CFC0174
:10127000E55BFF4F208131812115310511F0C90156
:1012800005C0FC01E35BFF4F808191810C942E101F
:1012900080911F03089510921F0380912003909165
:1012A00021030895209157043091580428173907D5
:1012B000B9F49091150480911604981789F0E09183
:1012C0001504F0E0E95EFB4F80812091150430E0C9
:1012D0002F5F3F4F2F7333272093150490E008951D
:1012E0008FEF9FEF089520915704309158042817ED
:1012F000390781F49091150480911604981751F0E4
:10130000E0911504F0E0E95EFB4F8081992787FDAD
:10131000909508958FEF9FEF089520915704309195
:1013200058042817390771F4809116042091150488
:1013300090E0805C9F4F821B910960E470E00E9406
:10134000F814089580E090E00895209157043091BA
:1013500058042817390739F48FB7F89410921604F7
:10136000109215048FBF0895DC015196ED91FC9108
:101370005297208150968C91809582238083089586
:1013800020E001972FEF8F3F9207D9F70895209122
:101390005704309158042817390789F0FC01238D30
:1013A0002E7F238F2FB7F8941092160410921504F5
:1013B00090935804809357042FBF81E0089580E0F4
:1013C0000895EF92FF920F931F93CF93DF93EC0159
:1013D0008B8DEE85FF859D8581FF04C080818923EB
:1013E00029F447C08081892309F043C08B899C89F7
:1013F0000E94C00908E010E0EE24E394F12C8D89EE
:101400009E890E94C009EE85FF8580819D85892384
:1014100011F0FE2803C08E2D8095F822EE0C0150AD
:1014200011090115110559F78F89988D0E94C0097E
:101430008B8D81FDF094809116042091150490E02D
:1014400001968F73992730E08217930779F0E09126
:101450001604F0E0E95EFB4FF0828091160490E004
:1014600001968F7399278093160403C08B8D81603A
:101470008B8FDF91CF911F910F91FF90EF90089587
:10148000611102C00C94B409DC015196ED91FC91FC
:101490005297208150968C91282B20830895DF92BB
:1014A000EF92FF920F931F93CF93DF93EC01E62E01
:1014B000898D9A8D892B39F481E090E09B838A8312
:1014C00080E090E04DC0DFB6F8946B8D669561705A
:1014D000CE010E94400A898D9A8D05960E94C0090E
:1014E0008B8D08E010E0FF24F39481FF19C08F2D4D
:1014F0008E2121F0CE010E94B40904C061E0CE012A
:101500000E94400A898D9A8D0E94C009FF0C0150EB
:1015100011090115110559F7CE010E94B40919C02E
:101520008F2D8E2129F061E0CE010E94400A03C078
:10153000CE010E94B409898D9A8D0E94C009FF0CCA
:10154000015011090115110559F761E0CE010E9402
:10155000400ADFBE898D9A8D0E94C00981E090E02B
:10156000DF91CF911F910F91FF90EF90DF90089541
:101570008091570490915804009711F00C94E10960
:1015800008951F920F920FB60F9211242F933F933D
:101590004F935F936F937F938F939F93AF93BF937B
:1015A000EF93FF930E94B80AFF91EF91BF91AF9123
:1015B0009F918F917F916F915F914F913F912F916B
:1015C0000F900FBE0F901F9018951F920F920FB69D
:1015D0000F9211242F933F934F935F936F937F93B9
:1015E0008F939F93AF93BF93EF93FF930E94B80A9B
:1015F000FF91EF91BF91AF919F918F917F916F91EB
:101600005F914F913F912F910F900FBE0F901F90C0
:1016100018951F920F920FB60F9211242F933F939C
:101620004F935F936F937F938F939F93AF93BF93EA
:10163000EF93FF930E94B80AFF91EF91BF91AF9192
:101640009F918F917F916F915F914F913F912F91DA
:101650000F900FBE0F901F9018951F93CF93DF939D
:10166000EC01162F61E0812F0E94770D61E0812F40
:101670000E94B00D812F90E0FC01E85EFE4FE491E6
:10168000E88BFC01E45DFE4FE491F0E0EE0FFF1FFC
:10169000E65BFE4F859194919A8B898BDF91CF9178
:1016A0001F9108951F93CF93DF93EC01162F60E0F5
:1016B000812F0E94770D8B8D81FD04C061E0812F09
:1016C0000E94B00D1C87812F90E0FC01E85EFE4F68
:1016D000E491ED87FC01E45DFE4FE491F0E0EE0F54
:1016E000FF1FE05CFE4F859194919F878E87DF916D
:1016F000CF911F910895FF920F931F93CF93DF9384
:10170000EC01F62E522F1B821A8208EE13E020E025
:1017100030E00C831D832E833F8385E892E099831C
:1017200088831C8A1B8A1E8A1D8A188E1F8A1A8E1D
:10173000198E8B8D8E7F50FB81F98B8F642FCE019C
:101740000E942D0B6F2DCE01DF91CF911F910F9134
:10175000FF900C94520B0F931F93CF93DF93EC01E8
:101760001A8E198E188E1F8A1E8A1D8AA8E6B0E06E
:1017700080E090E0FD0105911591259134910417C9
:1017800015072607370719F54CE0489F9001499F38
:10179000300D1124F901E459FF4F859194919C8BF0
:1017A0008B8BF901E259FF4F859194919E8B8D8B24
:1017B000F901E059FF4F85919491988F8F8B2E58A6
:1017C0003F4FF901859194919A8F898F08C00196B6
:1017D0001C968D30910509F0CDCF1C8A1B8A8F890C
:1017E000988D892B09F443C08C858631E0F52091D2
:1017F0006800883050F091E08E3008F490E081E08D
:1018000001C0880F9A95EAF701C084E0822B80938B
:1018100068002C85283038F02E3040F0263148F012
:10182000E0E0F0E008C0EDE6F0E005C0EBE6F0E057
:1018300002C0ECE6F0E03081283030F481E001C0F5
:10184000880F2A95EAF70DC0822F90E02E3010F411
:10185000089701C00E9791E001C0990F8A95EAF7A9
:10186000892F832B8083898D9A8D0E94C009CE0198
:10187000DF91CF911F910F910C94C709FC01448512
:10188000463150F5483028F04E3030F4EBE6F0E0C9
:1018900005C0EDE6F0E002C0ECE6F0E05081483033
:1018A00040F481E090E0042E01C0880F0A94EAF72A
:1018B00010C0242F30E04E3018F42850310902C0F7
:1018C0002E50310981E090E0022E01C0880F0A9469
:1018D000EAF7809585238083089525E832E0FC01AE
:1018E000318320830C943E0C1F920F920FB60F92FF
:1018F00011242F933F938F939F93AF93BF93809126
:101900005A0490915B04A0915C04B0915D04309105
:10191000590423E0230F2D3720F40196A11DB11D9A
:1019200005C026E8230F0296A11DB11D209359047E
:1019300080935A0490935B04A0935C04B0935D047D
:1019400080915E0490915F04A0916004B091610465
:101950000196A11DB11D80935E0490935F04A09336
:101960006004B0936104BF91AF919F918F913F91BB
:101970002F910F900FBE0F901F9018952FB7F894CE
:1019800060915A0470915B0480915C0490915D04B5
:101990002FBF08953FB7F89480915E0490915F0443
:1019A000A0916004B091610426B5A89B05C02F3FAB
:1019B00019F00196A11DB11D3FBF6627782F892F11
:1019C0009A2F620F711D811D911D42E0660F771FD6
:1019D000881F991F4A95D1F70895CF92DF92EF9211
:1019E000FF92CF93DF936B017C010E94CA0CEB0145
:1019F000C114D104E104F10479F00E94CA0C6C1BFB
:101A00007D0B683E7340A0F381E0C81AD108E1085D
:101A1000F108C851DC4FECCFDF91CF91FF90EF90F0
:101A2000DF90CF900895789484B5826084BD84B5AA
:101A3000816084BD85B5826085BD85B5816085BDC9
:101A4000EEE6F0E0808181608083E1E8F0E01082E2
:101A5000808182608083808181608083E0E8F0E023
:101A6000808181608083E1EBF0E08081846080830D
:101A7000E0EBF0E0808181608083EAE7F0E0808144
:101A800084608083808182608083808181608083A4
:101A90008081806880831092C1000895833081F036
:101AA00028F4813099F08230A1F008958630A9F0B1
:101AB0008730B9F08430D1F4809180008F7D03C0ED
:101AC000809180008F7780938000089584B58F7710
:101AD00002C084B58F7D84BD08958091B0008F775A
:101AE00003C08091B0008F7D8093B0000895CF93A4
:101AF000DF9390E0FC01E85EFE4F2491FC01E45D81
:101B0000FE4F8491882349F190E0880F991FFC01D2
:101B1000EC5AFE4FA591B491865B9E4FFC01C59196
:101B2000D4919FB7611108C0F8948C9120958223BD
:101B30008C93888182230AC0623051F4F8948C918E
:101B4000322F309583238C938881822B888304C025
:101B5000F8948C91822B8C939FBFDF91CF91089545
:101B60000F931F93CF93DF931F92CDB7DEB7282F2C
:101B700030E0F901EC5FFE4F8491F901E85EFE4F21
:101B80001491F901E45DFE4F04910023C9F088230C
:101B900021F069830E944E0D6981E02FF0E0EE0F85
:101BA000FF1FE65BFE4FA591B4919FB7F8948C910F
:101BB000611103C01095812301C0812B8C939FBFBD
:101BC0000F90DF91CF911F910F910895FC01248513
:101BD0003585F901E05CFF4F80819181F901EE5B71
:101BE000FF4F20813181821B930B8F7399270895BA
:101BF000FC0184859585FC01E05CFF4F40815181AB
:101C0000FC01EE5BFF4F208131814217530741F009
:101C10000190F081E02DE80FF91F808190E0089598
:101C20008FEF9FEF0895FC0184859585FC01E05CB2
:101C3000FF4F40815181FC01EE5BFF4F20813181DC
:101C40004217530779F0A081B181A80FB91F8C9179
:101C5000208131812F5F3F4F2F73332731832083C2
:101C600090E008958FEF9FEF0895FC0181A18823F4
:101C700029F0A489B5898C9186FFFBCF11A2089524
:101C8000CF93DF93FC0126853785D901A05CBF4F38
:101C90008D919C91119701968F739927E901CE5BE5
:101CA000DF4F4881598184179507D9F30D90BC9176
:101CB000A02DA20FB31F6C93A685B785A05CBF4F64
:101CC00011969C938E93A689B7892C9181E090E020
:101CD000078C02C0880F991F0A94E2F7282B2C93D7
:101CE00081E081A30488F589E02D80818064808370
:101CF00081E090E0DF91CF91089508951F920F92B7
:101D00000FB60F9211242F933F934F938F939F936E
:101D1000EF93FF938091C00082FD1CC04091C600EC
:101D2000809108059091090501968F73992720915C
:101D30000A0530910B058217930771F0E0910805B1
:101D4000F0910905E853FB4F408390930905809378
:101D5000080502C08091C600FF91EF919F918F917D
:101D60004F913F912F910F900FBE0F901F9018959C
:101D700082E694E00E94E60D892B11F00C947D0E12
:101D800008951F920F920FB60F9211242F933F9335
:101D90008F939F93EF93FF932091C4043091C504D8
:101DA0008091C6049091C7042817390731F48091B7
:101DB000C1008F7D8093C10014C0E091C604F091F2
:101DC000C704EC57FB4F20818091C6049091C70453
:101DD00001968F7399279093C7048093C60420932C
:101DE000C600FF91EF919F918F913F912F910F909E
:101DF0000FBE0F901F901895CF92DF92EF92FF9237
:101E0000CF93DF93EC016A017B01411581EE580706
:101E100061057105F9F0EC89FD8981E090E008A089
:101E200002C0880F991F0A94E2F7808360E079E08E
:101E30008DE390E0A70196010E940C152150310915
:101E4000410951095695479537952795211580E108
:101E5000380798F0EC89FD89108260E874E88EE11B
:101E600090E0A70196010E940C152150310941090B
:101E700051095695479537952795E889F989308313
:101E8000EA89FB89208319A2EE89FF89408181E0DC
:101E900090E09C010C8C02C0220F331F0A94E2F7E1
:101EA000422B4083EE89FF8940819C010D8C02C04A
:101EB000220F331F0A94E2F7422B4083EE89FF89F9
:101EC00040819C010E8C02C0220F331F0A94E2F75E
:101ED000422B4083EE89FF8920810F8C02C0880F3E
:101EE000991F0A94E2F7809582238083DF91CF9136
:101EF000FF90EF90DF90CF900895109265041092BC
:101F0000640488EE93E0A0E0B0E0809366049093D0
:101F10006704A0936804B093690485E992E0909304
:101F200063048093620488EC94E090936F04809340
:101F30006E0484E894E0909371048093700485ECBF
:101F400090E0909373048093720484EC90E09093FB
:101F500075048093740480EC90E0909377048093F0
:101F6000760481EC90E0909379048093780482EC7D
:101F700090E090937B0480937A0486EC90E09093B9
:101F80007D0480937C0484E080937E0483E08093CE
:101F90007F0487E08093800485E08093810481E062
:101FA000809382040895CF92DF92EF92FF920F9375
:101FB0001F93CF93DF936C017A01EB01E60EF71EBE
:101FC00000E010E0CE15DF0561F06991D601ED91DA
:101FD000FC910190F081E02DC6010995080F191FB1
:101FE000F1CFC801DF91CF911F910F91FF90EF903A
:101FF000DF90CF9008956115710581F0DB010D90A0
:102000000020E9F7AD0141505109461B570BDC0197
:10201000ED91FC910280F381E02D099480E090E045
:1020200008950C94FB0FDC01ED91FC910190F0817F
:10203000E02D09940F931F93CF93DF93EC016DE094
:102040000E9413108C016AE0CE010E941310800FD1
:10205000911FDF91CF911F910F9108950F931F93BF
:10206000CF93DF93EC010E94FB0F8C01CE010E9405
:102070001A10800F911FDF91CF911F910F9108953A
:102080000F931F93CF93DF93EC010E9413108C01E9
:10209000CE010E941A10800F911FDF91CF911F91E6
:1020A0000F9108958F929F92AF92BF92CF92DF923D
:1020B000EF92FF920F931F93CF93DF93CDB7DEB7CD
:1020C000A1970FB6F894DEBF0FBECDBF7C01C42E22
:1020D000E52FCB01D22E19A221E02D1510F02AE018
:1020E000D22E8E010F5D1F4F8D2C912CA12CB12C67
:1020F0006C2D7E2FA50194010E940C158C2DD29E73
:1021000080191124015011098A3014F4805D01C036
:10211000895CF8018083211531054105510521F0C5
:10212000C22EE32FCA01E4CFB801C7010E94FB0F02
:10213000A1960FB6F894DEBF0FBECDBFDF91CF9151
:102140001F910F91FF90EF90DF90CF90BF90AF90D5
:102150009F908F900895CF92DF92EF92FF920F930E
:102160001F93CF93DF93EC016A017B0121153105A9
:1021700079F4E881F9810190F081E02D642FDF91FD
:10218000CF911F910F91FF90EF90DF90CF90099426
:102190002A303105E9F477FF1AC06DE20E9413106E
:1021A0008C0144275527BA014C195D096E097F0936
:1021B0002AE0CE010E945210800F911FDF91CF9133
:1021C0001F910F91FF90EF90DF90CF9008952AE03C
:1021D000B701A601CE01DF91CF911F910F91FF9022
:1021E000EF90DF90CF900C9452109A01AB016627CC
:1021F00057FD6095762F0C94AB100F931F93CF93E0
:10220000DF93EC019A01AB01662757FD6095762FAD
:102210000E94AB108C01CE010E941A10800F911FFA
:10222000DF91CF911F910F9108952115310541F450
:10223000DC01ED91FC910190F081E02D642F099477
:102240000C9452109A01462F50E060E070E00C941C
:1022500015110F931F93CF93DF93EC019A01462F33
:1022600050E060E070E00E9415118C01CE010E94E8
:102270001A10800F911FDF91CF911F910F91089538
:102280000F931F93CF93DF93EC019A01AB0160E0B2
:1022900070E00E9415118C01CE010E941A10800F6F
:1022A000911FDF91CF911F910F9108954F925F92EF
:1022B0006F927F928F929F92AF92BF92CF92DF9256
:1022C000EF92FF920F931F93CF93DF93EC016A017C
:1022D0007B01B22E9A01AB01C701B6010E94D9144D
:1022E000882319F061EA72E027C026013701E894DB
:1022F00077F82FEF3FEF4FE75FE7C301B2010E948E
:10230000D91481110DC02FEF3FEF4FE75FE7C301F5
:10231000B2010E94C71218161CF465EA72E00CC0E4
:102320002FEF3FEF4FE75FE4C701B6010E94721441
:102330001816ACF469EA72E0CE01DF91CF911F91DB
:102340000F91FF90EF90DF90CF90BF90AF909F9054
:102350008F907F906F905F904F900C94FB0F2FEFBA
:102360003FEF4FE75FECC701B6010E94C71287FD40
:10237000E1CF20E030E0A901C701B6010E94C712F9
:1023800087FF0AC06DE2CE010E9413108C01F7FA9C
:10239000F094F7F8F09402C000E010E0A12C60E0A7
:1023A00070E080E09FE3AB1441F020E030E040E2D9
:1023B00051E40E94CB12A394F6CF9B01AC01C7015C
:1023C000B6010E9463126B017C010E9438132B013D
:1023D0003C010E9464139B01AC01C701B6010E943D
:1023E00062126B017C012AE0B301A201CE010E94BE
:1023F0005210080F191FBB2039F06DEA72E0CE01B0
:102400000E94FB0F080F191F7B2C772041F120E061
:1024100030E040E251E4C701B6010E9476146B013E
:102420007C010E9433134B01AA2497FCA094BA2C80
:102430002AE030E0B501A401CE010E94AB10080FE4
:10244000191FC501B4010E9466139B01AC01C701AD
:10245000B6010E9462126B017C017A94D6CFC8014A
:10246000DF91CF911F910F91FF90EF90DF90CF9070
:10247000BF90AF909F908F907F906F905F904F90A4
:1024800008950C9456110F931F93CF93DF93EC0193
:102490000E9456118C01CE010E941A10800F911FCC
:1024A000DF91CF911F910F9108950E94130D0E940B
:1024B0003801C8EBDEE00E9473012097E1F30E942F
:1024C000B80EF9CF5058BB27AA270ED0D1C1C2D120
:1024D00030F0C7D120F031F49F3F11F41EF4B7C1A2
:1024E0000EF4E095E7FB9FC1E92FD3D180F3BA1733
:1024F000620773078407950718F071F49EF5EBC126
:102500000EF4E0950B2EBA2FA02D0B01B90190010E
:102510000C01CA01A0011124FF27591B99F0593F52
:1025200050F4503E68F11A16F040A22F232F342F9A
:102530004427585FF3CF469537952795A795F040E8
:102540005395C9F77EF41F16BA0B620B730B840BFD
:10255000BAF09150A1F0FF0FBB1F661F771F881FB5
:10256000C2F70EC0BA0F621F731F841F48F487950D
:1025700077956795B795F7959E3F08F0B3CF9395FC
:10258000880F08F09927EE0F97958795089527D122
:1025900008F481E008950CD06BC163D140F05AD1AA
:1025A00030F021F45F3F19F03EC1511195C14FC188
:1025B00070D198F39923C9F35523B1F3951B550BAB
:1025C000BB27AA2762177307840738F09F5F5F4F06
:1025D000220F331F441FAA1FA9F333D00E2E3AF047
:1025E000E0E830D091505040E695001CCAF729D061
:1025F000FE2F27D0660F771F881FBB1F26173707B0
:102600004807AB07B0E809F0BB0B802DBF01FF27DF
:1026100093585F4F2AF09E3F510568F004C15CC19A
:102620005F3FECF3983EDCF3869577956795B79519
:10263000F7959F5FC9F7880F911D9695879597F934
:102640000895E1E0660F771F881FBB1F62177307AD
:102650008407BA0720F0621B730B840BBA0BEE1FC2
:1026600088F7E095089504D06894B11135C10895B4
:1026700018D188F09F5790F0B92F9927B751A0F043
:10268000D1F0660F771F881F991F1AF0BA95C9F706
:1026900012C0B13081F01FD1B1E008951CC1672F85
:1026A000782F8827B85F39F0B93FCCF386957795B6
:1026B0006795B395D9F73EF490958095709561959F
:1026C0007F4F8F4F9F4F0895E89409C097FB3EF4CA
:1026D00090958095709561957F4F8F4F9F4F99236F
:1026E000A9F0F92F96E9BB279395F69587957795ED
:1026F0006795B795F111F8CFFAF4BB0F11F460FFAD
:102700001BC06F5F7F4F8F4F9F4F16C0882311F004
:1027100096E911C0772321F09EE8872F762F05C018
:10272000662371F096E8862F70E060E02AF09A95B3
:10273000660F771F881FDAF7880F9695879597F9A8
:10274000089588D018F011F08CD038F480C0C4C03F
:10275000E92F9FD0B0F35523C9F3E7FB6217730746
:1027600084079507A8F199F3E92FFF2788232AF01A
:102770003197660F771F881FDAF7952F5527442367
:1027800032F091505040220F331F441FD2F7BB2725
:10279000E91BF50B621B730B840BB109C1F222F428
:1027A000620F731F841FB11D31972AF0660F771FC8
:1027B000881FBB1FEFCF915050405AF041F0882343
:1027C00032F0660F771F881F91505040C1F79395E4
:1027D00030C08695779567959F5FD9F7F8CF990FA9
:1027E0000008550FAA0BE0E8FEEF16161706E807DB
:1027F000F907C0F012161306E407F50798F0621BFC
:10280000730B840B950B39F40A2661F0232B242BD0
:10281000252B21F408950A2609F4A140A6958FEFEF
:10282000811D811D089597F99F6780E870E060E041
:1028300008959F3F31F0915020F4879577956795E3
:10284000B795880F911D9695879597F908959FEFF5
:1028500080EC089500240A94161617061806090637
:10286000089500240A941216130614060506089506
:10287000092E0394000C11F4882352F0BB0F40F48E
:10288000BF2B11F460FF04C06F5F7F4F8F4F9F4FCE
:10289000089557FD9058440F551F59F05F3F71F050
:1028A0004795880F97FB991F61F09F3F79F08795B7
:1028B0000895121613061406551FF2CF4695F1DF40
:1028C00008C0161617061806991FF1CF86957105D0
:1028D000610508940895E894BB2766277727CB0104
:1028E00097F908957CDF08F48FEF08950BD0C0CFDF
:1028F000B1DF28F0B6DF18F0952309F094CFA7CF09
:102900001124EACFC6DFA0F3959FD1F3950F50E0D5
:10291000551F629FF001729FBB27F00DB11D639F91
:10292000AA27F00DB11DAA1F649F6627B00DA11D37
:10293000661F829F2227B00DA11D621F739FB00DDD
:10294000A11D621F839FA00D611D221F749F33274D
:10295000A00D611D231F849F600D211D822F762FE6
:102960006A2F11249F5750408AF0E1F088234AF0E3
:10297000EE0FFF1FBB1F661F771F881F915050402F
:10298000A9F79E3F510570F04ECFA6CF5F3FECF305
:10299000983EDCF3869577956795B795F795E7951B
:1029A0009F5FC1F7FE2B880F911D9695879597F92C
:1029B000089515DF880B990B08950E944D15A59F6A
:1029C000900DB49F900DA49F800D911D112408952A
:1029D000DB018F939F930E94DD14BF91AF91A29F63
:1029E000800D911DA39F900DB29F900D112408950D
:1029F00097FB072E16F4009407D077FD09D00E94AC
:102A00005C1507FC05D03EF4909581959F4F089585
:102A1000709561957F4F0895A1E21A2EAA1BBB1BEA
:102A2000FD010DC0AA1FBB1FEE1FFF1FA217B3079A
:102A3000E407F50720F0A21BB30BE40BF50B661FB0
:102A4000771F881F991F1A9469F760957095809574
:102A500090959B01AC01BD01CF010895052E97FB18
:102A60001EF400940E94451557FD07D00E940C15D6
:102A700007FC03D04EF40C944515509540953095C5
:102A800021953F4F4F4F5F4F0895909580957095DA
:102A900061957F4F8F4F9F4F0895A29FB001B39FC5
:102AA000C001A39F700D811D1124911DB29F700D57
:102AB000811D1124911D0895AA1BBB1B51E107C064
:102AC000AA1FBB1FA617B70710F0A61BB70B881FBE
:102AD000991F5A95A9F780959095BC01CD0108954D
:102AE000EE0FFF1F0590F491E02D099466277727DC
:102AF0000C941816FC0188279927E894219120321C
:102B0000E9F3293010F02E30C8F32B3241F02D328A
:102B100039F4689404C00E941016820F911D21910F
:102B200020532A30C0F31EF4909581959F4F08954D
:102B30001F93FC0199278827BC01E894119110325A
:102B4000E9F3193010F01E30C8F31B3251F01D327A
:102B500049F4689406C00E94FB15610F711D811D28
:102B6000911D119110531A30B0F33EF49095809559
:102B7000709561957F4F8F4F9F4F1F9108959111D1
:102B8000BEC1803219F089508550D0F70895FC01FC
:102B90008191861721F08823D9F7992708953197D5
:102BA000CF010895FB01DC014150504048F00190F5
:102BB0000D920020C9F701C01D9241505040E0F72E
:102BC0000895FB0151915523A9F0BF01DC014D91FE
:102BD00045174111E1F759F4CD010190002049F06A
:102BE0004D9140154111C9F3FB014111EFCF81E037
:102BF00090E001970895592F482F372F262F660F01
:102C0000771F881F991F660F771F881F991F620FF4
:102C1000731F841F951F660F771F881F991F0895C4
:102C20007AE0979F902D879F802D910D1124089514
:102C3000A0E0B0E0EEE1F6E10C949C178B01611589
:102C4000710521F0DB018C9311969C93EC015E01E0
:102C5000BFEFAB1ABB0A7501C8808C2D90E00E94B3
:102C6000BF15892B11F0E501F2CFEDE2CE1208C0BD
:102C70007E01F2E0EF0EF11CC980DD24D39409C07F
:102C80002BE2C21205C07E0142E0E40EF11CC980B5
:102C9000D12CE701219743E050E066E671E0CE01D8
:102CA0000E948217892BD1F4E701229645E050E07B
:102CB00061E671E0CE010E948217892B11F4E701D1
:102CC00027960115110519F0D801CD93DC93D11089
:102CD00008C160E070E080E89FE70CC143E050E08D
:102CE0006EE571E0CE010E948217892B59F401151F
:102CF000110509F4FBC0B2E0EB0EF11CF801F18202
:102D0000E082F4C0F70160E070E0CB01C0E0D0E009
:102D10007F01A0EDAA2EAC0C29E02A1530F14D2D33
:102D20004260B42E2D2D2870D2FE04C0211125C082
:102D3000219623C021112197A5E0B0E09B01AC01B1
:102D40000E94DD14660F771F881F991F6A0D711D81
:102D5000811D911D6839A9E97A078A07A9E19A07B7
:102D600060F0BD2DB660BB2E08C02EEFA2120AC0C7
:102D7000D3FC50C04D2D4860B42E3196D701CC9075
:102D8000DB2CC6CF2C2D2F7D253409F043C0A0812C
:102D9000AD3241F4BD2DB061DB2E7F0122E0E20EA9
:102DA000F11C0CC07F01AB3231F04FEFE41AF40A92
:102DB00021E030E006C0A2E0EA0EF11CA18122E091
:102DC00030E0A053AA3018F0E21AF30A23C0F7014A
:102DD00020E030E02038BCE03B075CF4A901440F60
:102DE000551F440F551F240F351F220F331F2A0F65
:102DF000311DAF014F5F5F4F7A01A081A053AA3010
:102E000010F4FA01E7CFD4FE03C0319521953109C2
:102E1000C20FD31FD1FE09C00115110531F0E1E049
:102E2000EE1AF108D801ED92FC920E9464132D2D48
:102E30002370233019F06B017C0106C06B017C010B
:102E4000F7FAF094F7F8F09420E030E0A901C70118
:102E5000B6010E94C712882309F440C0D7FF06C0FC
:102E6000D195C195D1090DE711E002C005E911E046
:102E70004801B8E18B1A910890E2A92EB12CF80113
:102E80004590559065907490CA15DB055CF0A301E0
:102E90009201C701B6010E9476146B017C01CA1928
:102EA000DB09F2CF04501109B594A7940815190550
:102EB00031F78E2D880F8F2D881F8F3F49F020E02E
:102EC00030E0A901C701B6010E94C712811106C0F6
:102ED00082E290E090930D0580930C05C701B60146
:102EE00009C060E070E080E89FEF04C060E070E03F
:102EF00080EC9FE7CDB7DEB7E0E10C94B8179927D7
:102F000088270895FB01DC014150504088F08D91E5
:102F100081341CF08B350CF4805E659161341CF0BB
:102F20006B350CF4605E861B611171F3990B08958B
:102F3000881BFCCF2F923F924F925F926F927F92AD
:102F40008F929F92AF92BF92CF92DF92EF92FF92B9
:102F50000F931F93CF93DF93CDB7DEB7CA1BDB0B65
:102F60000FB6F894DEBF0FBECDBF09942A8839880A
:102F700048885F846E847D848C849B84AA84B98411
:102F8000C884DF80EE80FD800C811B81AA81B9811D
:102F9000CE0FD11D0FB6F894DEBF0FBECDBFED0131
:102FA000089511E0CEE9D1E004C0FE010E9472153F
:0C2FB0002296C03AD107C9F7F894FFCF71
:102FBC0001416461667275697420475053206C69D5
:102FCC0062726172792062617369632074657374D3
:102FDC00210024504D544B3331342C302C312C30B7
:102FEC002C312C302C302C302C302C302C302C30F4
:102FFC002C302C302C302C302C302C302C302C30E5
:10300C002A32380024504D544B3232302C3130306F
:10301C00302A314600245047434D442C33332C3155
:10302C002A36430024504D544B3630352A33310068
:10303C000A54696D653A2000446174653A20002F8A
:10304C003230004669783A2000207175616C6974E1
:10305C00793A20004C6F636174696F6E3A20002CD2
:10306C0020004C6F636174696F6E2028696E206458
:10307C006567726565732C20776F726B7320776947
:10308C00746820476F6F676C65204D617073293AC7
:10309C002000537065656420286B6E6F7473293A39
:1030AC002000416E676C653A2000416C7469747540
:1030BC0064653A2000536174656C6C697465733A8D
:1030CC00200024475047474100244750524D4300AD
:1030DC0024504D544B3138352C302A323200245088
:1030EC004D544B3030312C3138352C332A3343008E
:1030FC0024504D544B3138352C312A323300245066
:10310C004D544B3138332A33380024504D544B4CEA
:10311C004F470024504D544B3136312C302A323825
:10312C000024504D544B3031302C3030322A324444
:10313C0000000000004F0AD30F8D0952097309A536
:10314C000900000000400ED30FE60D130EF80D35EC
:10315C000E6E616E00696E66006F7666002E000062
:00000001FF
